:1000000006C420C41FC41EC41DC41CC41BC41AC4FF
:1000100019C418C417C416C415C414C413C412C414
:1000200011C42A2A2A2A2A2A2A2A00FFFFFF0000AE
:1000300060500B464C415348524F4D203939AA016C
:1000400000000000680C0000000000000000C82054
:10005000646883EA101DC820646A83EA1019C82006
:10006000646C83EA1015C820646E83EA1011C820FE
:10007000647083EA100DC820647283EA1009C820F6
:10008000647483EA1005C820647683EA1001104383
:100090000300000002E083E006A060C40203003118
:1000A00006A060A402000C00020164B60202002057
:1000B00006A064200200830002016374020200981B
:1000C000CC31064216FD020042FEC1A56808026658
:1000D000AA00C1E5680A02088C0202020009046055
:1000E000830AC28B02000900020164D6020203F0F7
:1000F00006A0642004C002016478C08306A06420C6
:10010000045AC28B020005000201830A020200A603
:1001100006A06420045A0300000002E083E006A069
:1001200060C40203003E06A060A4020000A5020114
:10013000632A0202000B06A0642002000C80020366
:100140000007020163550202001006A0642002208D
:100150000080060316F602000392020163650202A4
:10016000000E06A064200200006002016335020256
:10017000002006A0642004C30205692C0206830047
:10018000C205C015131DC1030584020783000604C0
:10019000130804C1D0770931A048C0059C7013FE34
:1001A0001BF6C006C04610030600D4500601060424
:1001B00018FBD42083E7058302250020058610E183
:1001C000D5A063260200040002018300C0830582DB
:1001D00006A06420C803830004E0830204C0020177
:1001E0000012A043020200133C0202203130C8007A
:1001F0008304020500A20206692C02070013020014
:100200000400A0208302020183080202001306A05A
:1002100064380208830804C4D13891206326160A82
:10022000C08702000300020120200A52600206A0DB
:100230006450101A0934A106C00502012054604719
:1002400006C106A0640C0585C00502012E2006A08B
:10025000640C05C5C005C0440202001406A0642059
:100260000225001D060716D702000038C06083046F
:1002700006A0640C05C006C106A0640CC80783066E
:1002800002009E7EC8008372020005FFC8008374CE
:1002900004C0C800837C06A0000E02000020D0200D
:1002A000837C2020632416F4D020837502800520EF
:1002B00016020420000002802020133502802C202A
:1002C000132602802E20132F028031201AE1028093
:1002D00039201237028061201A020220E0000280D9
:1002E00041201AD6028053201BD30220BF00098070
:1002F000C0608306A0400281001314CA04C5022016
:100300008308D15009350225012004606066C020B1
:10031000830213BE0220FFEDC80083026820632819
:100320008304046061B4C0208302022000138800AB
:10033000830014AEC8008302A820632883040460ED
:1003400061B4C1400220CF0009800201001338408F
:1003500088028300149DC8028302D80583040460C8
:1003600061B42000FFFF0100534F5254494E472013
:100370002E2E2E90909191A0A0A1A1B0B0B1B1C0AD
:10038000C0C1C1D0D0B1B1D1D1E0E0E1E1F0F0F134
:10039000F19090FFFFFFFFFFFFFFFF000000000054
:1003A00000000063631B1BCDCDF4F42828E5E59A1B
:1003B0009A00DC208800060216FC0457D12568004C
:1003C0000203000804E060000A14180304E070004F
:1003D000100204E07800060316F50585060216EE05
:1003E00004E0600004C30603D06083E70241030019
:1003F0000261800006C0D60006C0D600D8018C007D
:100400000204090004C5C0A06000818216010585B0
:10041000060416F9028509001AE6020000400201EE
:10042000202002020300D60006C0D600D8018C00AE
:10043000060216FC0200050006C0D60006C0D60063
:100440000200830A020200A610B4D82083E18C02C5
:1004500002604000D8008C02D8018C00045BD820D8
:1004600083E18C0202604000D8008C02D8318C00FD
:10047000060216FC045BD82083E18C0202403FFF99
:10048000D8008C02DC608800060216FC045BD820D1
:1004900083E18C0202604000D8008C02D8018C00FD
:1004A000060216FC045B000000240048006C00906B
:1004B00000B400D800FC2020606162636465666758
:1004C00068696A6B6C6D6E202028432920323031B8
:1004D00036205242202020206F707172737475761E
:1004E0007778797A7B7C7D5E2020203C2C20232F1E
:1004F00023202E3E0060600000060600000000C3BE
:10050000C30000000006060000606000181800002C
:10051000000018180000000000000000001010107B
:1005200010001000002424000000000000247E249D
:10053000247E240000083E283E0A3E08006264082B
:1005400010264600001028102A443A000008100027
:100550000000000000040808080804000020101033
:1005600010102000000014083E08140000000808C5
:100570003E0808000000000000080810000000000D
:100580003E000000000000000018180000000204F7
:1005900008102000003C464A52623C00001828081F
:1005A00008083E00003C42023C407E00003C420CF9
:1005B00002423C0000081828487E0800007E407C6B
:1005C00002423C00003C407C42423C00007E02046F
:1005D00008101000003C423C42423C00003C4242B9
:1005E0003E023C000000001000001000000010005F
:1005F0000010102000000408100804000000003E55
:10060000003E00000000100804081000003C4204F6
:1006100008000800003C4A565E403C00003C424254
:100620007E424200007C427C42427C00003C4240D0
:1006300040423C000078444242447800007E407CC6
:1006400040407E00007E407C40404000003C4240F4
:100650004E423C000042427E42424200003E0808B8
:1006600008083E000002020242423C00004448707A
:10067000484442000040404040407E000042665AEC
:1006800042424200004262524A464200003C42421C
:1006900042423C00007C42427C404000003C4242DE
:1006A000524A3C00007C42427C444200003C403CB8
:1006B00002423C0000FE10101010100000424242A6
:1006C00042423C0000424242422418000042424260
:1006D000425A240000422418182442000082442870
:1006E00010101000007E040810207E00000E080884
:1006F00008080E00000040201008040000701010D0
:10070000101070000000009296A2A2C70000000026
:10071000000000FFFFFFFFE0E0E0FFFFEEEEEE0E67
:100720000E0E0E0E00000000003E7FFF00000000D5
:1007300000E1E3E70000000000F8FCFEE0E0E0E09C
:10074000E0EFFFFF0F0F0F0E0E8ECFEFF8FCFE0E47
:100750000E0EFEFC3F7FFFE0E0E0E0E08ECFEFEF2B
:10076000EFEEEEEE0E1EBEFEFEEEEE0E01030707EE
:1007700007070703FCFEFF070707FFFF1F3F7F7008
:1007800070707F3FC0E0F0707070F0F0FFE0E0E06C
:10079000E0E0E0E00E0E0E0E0E0E0E0EE0E0E0E0E9
:1007A000E0FF7F3EEFEFE7E0E0EFE7E30080FC3EB5
:1007B0001EFCF8F0F1E0E0E0E0E0E0E0EFEEEEEE6D
:1007C000EEEEEEEEF83C1E0E0E0E0E0EE0E0E0E059
:1007D000E0FF7F3FEEEEEEEEEEEECE8E0E0E0E0E54
:1007E0000E0E0E0E0100000707070301FF070707A3
:1007F00007FFFEFC1F000070707F3F1FF0707070DD
:1008000070F0E0C0EE99564552313030EE99112427
:100810001FBECFE5D2E0DEBFCDBF10E0A0E6B0E066
:10082000EEE9FFE102C005900D92A236B107D9F7BB
:1008300021E0A2E6B0E001C01D92AF3DB207E1F7B2
:100840006DDBABCBDDCBCF93C82F682F8091DD0163
:100850009091DE0174D28091DD019091DE018115CD
:1008600020E4920718F46C2F905C69D28091DD012E
:100870009091DE01811520E2920750F46C2F905E7A
:100880005ED28091DD019091DE016C2F905A57D29B
:100890008091DD019091DE0101969093DE018093BD
:1008A000DD01CF9108951092D8011092D9010895D9
:1008B0006F927F929F92AF92BF92CF92DF92EF9210
:1008C000FF920F931F93CF93DF9300D0CDB7DEB786
:1008D00015D28EEA91E006D580938701882311F026
:1008E00081E064D260E670E08EE991E05DD88093AB
:1008F0008701882311F082E059D21092DE01109214
:10090000DD010EE310E0F80184919DDF0F5F1F4FC2
:10091000F8E004301F07B9F7B2E6EB2EB1E0FB2E8A
:1009200014E2B12EBE0C82E290E00CE1D02ED80E83
:1009300083E791E094E1C92EC80E8091D9018B3AEA
:1009400078F468E871E08EE991E06ED880938701D1
:10095000882311F083E02AD280919101811106C091
:100960001091D801113009F02BC155C1809190012F
:1009700084FDE3CFE2E9F1E0CF0121912111FCCF29
:100980009C012159314025303105BCF2FC013197E1
:1009900020812E3491F631972081293471F63197D8
:1009A0002081223451F6319780818E3231F6809148
:1009B000880190918901A0918A01B0918B018130C9
:1009C0009048A105B10508F0B8CF88E891E0E2D5DC
:1009D000809387018111B1CFAE014F5F5F4F68E017
:1009E00070E082E690E0FAD5809387018111A5CF6F
:1009F00089819A81089708F4A0CF809162008A3A91
:100A000009F09BCFA09063000091680010E0102FC8
:100A1000002780916900080F111D712CACE09A2EFF
:100A20009E0C0115110509F4C2C0B8017056613E53
:100A30008FE1780708F0BBC08091D9018B3A08F0AC
:100A4000B6C080E090E097D68111B1C0AE014F5F93
:100A50005F4F6AE170E082E690E0C0D500916200ED
:100A600010E0102F002780916300080F111D41E94D
:100A700051E088E0E2E6F1E0DA019D91AD019E32BD
:100A800041F031969F0121503109D9019C93815049
:100A900099F7DF01982F915010F01D92FCCFE80FCD
:100AA000F11D1082A1828091640082838091650093
:100AB00083836091D901862F90E0AC014F5F5F4F37
:100AC00074E2749F9001759F300D1124A901445F59
:100AD00057495483458340E646830296880F880F22
:100AE000880F87834091660083E180873996A7E667
:100AF000B0E080E0841718F49C91119601C090E258
:100B000091938F5F8431B1F7693098F08091D9016A
:100B100090E0875B9F4F65E0880F991F6A95E1F72A
:100B20009093DE018093DD0172E6672E71E0772EEF
:100B300026C0683099F480E098E09093DE018093BD
:100B4000DD0152E2652E50E0752EF30184917BDECB
:100B5000FFEF6F1A7F0AD610F8CFD8CF2452384F44
:100B60003093DE012093DD0142E6642E41E0742ED5
:100B7000D3018D913D0167DEB610FACFC7CFF301E7
:100B800081913F0160DE9610FACF33E7632E31E0AA
:100B9000732ED3018D913D0156DEC610FACF8091A0
:100BA000D9018F5F8093D901772473943ACF77204E
:100BB00009F4C3CE8091D8018F5F8093D801BDCE58
:100BC0008091D901893098F4882339F0B4E28B9F61
:100BD000C00111248851984F02C086E090E09093A4
:100BE000DE018093DD0180E02EDE80E02CDE80914E
:100BF000D90190E0875B9F4F25E0880F991F2A95C8
:100C0000E1F79093DE018093DD011EE080E01BDEC2
:100C10001150E1F77FD0812F0F900F90DF91CF918E
:100C20001F910F91FF90EF90DF90CF90BF90AF900A
:100C30009F907F906F90089582E691E09AC0EF9226
:100C4000FF920F931F93CF93DF9300D0CDB7DEB702
:100C500055D01092DE011092DD018EEA91E042D370
:100C600080938701882311F081E0A0D002E611E093
:100C70000F5F1F4FF80180818111FACF8EE28083D0
:100C800082E4818389E482838EE48383148282E612
:100C900091E033D480938701811126C0AE014F5F6C
:100CA0005F4F60E071E082E690E098D48093870126
:100CB00089819A81892B91F082E6E82E80E0F82ED6
:100CC00089819A819C01215031093A832983892B9A
:100CD00029F3F70181917F01B6DDF2CFF80182910E
:100CE000833411F484E4808315D00F900F90DF914A
:100CF000CF911F910F91FF90EF9008958EE085BBEB
:100D00008FEF84BB8ABB90E897BB81BB87E086B935
:100D1000C79A089585B3876085BB1ABA80E887BBF8
:100D200089E084BB11BA16B81BBA18BA85B38F70A4
:100D300085BB12BA17B885B3867F85BB089545B3C6
:100D40009C0122273877220F232F221F330B319546
:100D5000342F3F70232B25BB9C012227377037B9D6
:100D60008BBB62BBAA9882E08A95F1F700C0AA9A71
:100D70000895B699FECFFC01AC01475F5F4F98E044
:100D800080E0B69BFECF25E02A95F1F70000880FA2
:100D900026B325FB222720F9820FB699FECF91506A
:100DA00081F78193E417F50751F7089590E09817BC
:100DB000B1F0C79A2FEF32E547E021503040404074
:100DC000E1F700C00000C7982FEF32E547E021505F
:100DD00030404040E1F700C000009F5FE8CF9FEF48
:100DE00024E33CE0915020403040E1F700C0000097
:100DF000DDCF0F931F93E091DA01F091DB019B01AE
:100E0000AC01225031094109510986819781A085A1
:100E1000B1850297A109B109281739074A075B076D
:100E200060F4A281B0E0A3D80289138924893589AE
:100E3000600F711F821F931F03C060E070E0CB0141
:100E40001F910F9108950F931F93E091DA01F09194
:100E5000DB012081233049F4FC014489558960E09D
:100E600070E0BA015527442703C040E050E0BA01C2
:100E7000FC01828D938DA0E0B0E08A019B01082BDC
:100E8000192B2A2B3B2BC901B8011F910F910895F3
:100E90000F931F93CF93DF93DC01E091DA01F09180
:100EA000DB0111961C921E9214966D917D918D918D
:100EB0009C911797613071058105910559F1068163
:100EC000178120853185601771078207930710F518
:100ED000611571058105910539F42081233021F4D4
:100EE0006685778580899189ED01688779878A870A
:100EF0009B87611571058105910511F07ADF04C0AA
:100F000066857785808991896C877D878E879F87A5
:100F100080E001C081E0DF91CF911F910F91089592
:100F2000CF92DF92EF92FF920F931F93CF93DF93B5
:100F300000D000D0CDB7DEB7E091DA01F091DB014F
:100F4000623071058105910508F457C0C680D780CD
:100F5000E084F1846C157D058E059F0508F04DC079
:100F60002081223019F02330F9F047C09B0133274C
:100F7000220F331FBB27A92F982F872FC284D3841A
:100F8000E484F584AC01BD014C0D5D1D6E1D7F1D1B
:100F900002E010E0CE0101966CD781112EC069816C
:100FA0007A8180E090E02DC09B012F773327220FBC
:100FB000331F220F331FDC01CB0157E0B695A795F5
:100FC000979587955A95D1F7C284D384E484F584A4
:100FD000AC01BD014C0D5D1D6E1D7F1D04E010E0D8
:100FE000CE01019646D7811108C089819A81AB81D3
:100FF000BC81BC01CD019F7004C061E070E080E065
:1010000090E00F900F900F900F90DF91CF911F9174
:101010000F91FF90EF90DF90CF900895CF92DF92E5
:10102000EF92FF920F931F93CF93DF93EC01E09029
:10103000DA01F090DB01088119810F5F1F4F11F475
:1010400083E055C04C855D856E857F8541155105D2
:1010500061057105A9F3C8018F709927892B09F0E3
:1010600041C04F5F5F4F6F4F7F4F4C875D876E87EB
:101070007F87688579858A859B85F701611571056C
:101080008105910531F48481958108171907C0F60F
:1010900029C0228130E0A901415051099801E4E0C2
:1010A00036952795EA95E1F724233523232BD1F4B0
:1010B00037DF6230710581059105C0F0F701C68008
:1010C000D780E084F1846C157D058E059F0508F0BE
:1010D000B7CF688779878A879B878BDE6C877D8708
:1010E0008E879F871983088380E001C081E0DF91AC
:1010F000CF911F910F91FF90EF90DF90CF900895C7
:10110000CF92DF92EF92FF920F931F93CF93DF93D3
:10111000EC016A017B0102E010E02EEF31E0A9D67C
:10112000811124C08881998185359A4A09F526E381
:1011300030E0B701A601CE019CD6811107C088819D
:1011400099818634914411F480E015C002E010E0EA
:1011500022E530E0B701A601CE018BD681110AC08D
:10116000888199818634914429F4EECF83E003C0CD
:1011700082E001C081E0DF91CF911F910F91FF903C
:10118000EF90DF90CF9008958F929F92AF92BF9291
:10119000CF92DF92EF92FF920F931F93CF93DF9343
:1011A000EC016B015A011C821D821E821F82DA0132
:1011B0008C91803238F020E2E22E4B01BBE08B0EA6
:1011C000911C4DC0CE0164DEF82EF60110827CC069
:1011D00080E090E028E031E0390FD501A90FB11D82
:1011E0009C91913208F046C0A30EB11C81E091326F
:1011F00008F080E08387CE014BDEF82E811164C0B9
:10120000288139812F70332795E0220F331F9A955B
:10121000E1F74C855D856E857F8500E210E0C601B3
:1012200028D6811145C0D6018C91882309F443C08A
:101230001B964C9143FD35C06A817B81F6019B0171
:10124000E815F90531F5FB01838581113DC044FFA7
:1012500032C0C601F8DD6C837D838E839F83EA8173
:10126000FB81DF01CF010B96A817B90709F4B0CFB6
:10127000ED92FACF9F3209F4B7CF9E32F9F0821780
:1012800008F0B2CFDF01A80FB11D9C938F5F932FA1
:10129000A2CF8191D9015D919D0190E0851B9109BB
:1012A00079F2CE01BBDE882309F4AACFF82E0CC058
:1012B000FF24F39409C083E0F82E06C0283009F01B
:1012C00093CF88E02BE0E3CF8F2DDF91CF911F915B
:1012D0000F91FF90EF90DF90CF90BF90AF909F90D5
:1012E0008F9008952F923F924F925F926F927F92CC
:1012F0008F929F92AF92BF92CF92DF92EF92FF9226
:101300000F931F93CF93DF93CDB7DEB7A4970FB69C
:10131000F894DEBF0FBECDBF1C011092DB0110920E
:10132000DA0100D580FD98C040E050E0BA01CE015E
:101330000196E6DE8130E9F400E110E02EEB31E0C9
:1013400040E050E0BA01CE01019693D5882311F018
:1013500081E0BAC08D81811102C086E0B5C04984A8
:101360005A846B847C84B301A201CE010196C8DE4D
:1013700003C0412C512C3201833051F38111EDCF48
:1013800004E210E02DE030E0B301A201CE010196AD
:1013900070D58111DDCF2A853B8540E050E02115D5
:1013A00031054105510521F4288D398D4A8D5B8D1C
:1013B000AC81B0E0DCD54B015C010A811B8120E0EF
:1013C00030E0400E511E621E731EF10142865386AC
:1013D0006486758649814283CD80DE80D582C48251
:1013E0008F819885A0E0B0E00097A105B10521F4B8
:1013F0008C899D89AE89BF8954E0D694C7945A954B
:10140000E1F7E12CF12C801B910BA20BB30B881997
:101410009909AA09BB09BC01CD016C197D098E0986
:101420009F09242F30E040E050E07FD5DA01C90168
:101430000296A11DB11DF10186839783A087B18714
:10144000BA01A901465F5F40610971094F3F5F4ED4
:101450006105710590F102C082E036C0873F9F4F61
:10146000A105B10508F479CF83E0F10180838330D1
:1014700029F488A199A1AAA1BBA107C0D501C401E3
:10148000840D951DA61DB71DF10186879787A08B3A
:10149000B18BC40CD51CE61CF71CC80CD91CEA1C6B
:1014A000FB1CF101C28AD38AE48AF58A1182309248
:1014B000DB012092DA0180E007C0873F9F4FA10542
:1014C000B10590F682E0D1CFA4960FB6F894DEBFB6
:1014D0000FBECDBFDF91CF911F910F91FF90EF9085
:1014E000DF90CF90BF90AF909F908F907F906F9044
:1014F0005F904F903F902F9008950F931F93CF933D
:10150000DF93CDB7DEB7EC970FB6F894DEBF0FBE12
:10151000CDBF0091DA011091DB010115110561F1D8
:10152000AC01F8011182CE01C1969CA38BA3BE0130
:101530006F5F7F4F409728DE811121C0898188230A
:10154000E9F08C8584FD1AC0CE0101967CDCF8019F
:10155000668F778F80A391A38D8D9E8DAF8DB8A15F
:10156000828F938FA48FB58F168A178A108E118E53
:1015700081E0818380E003C085E001C083E0EC96D8
:101580000FB6F894DEBF0FBECDBFDF91CF911F9194
:101590000F910895CF93DF93E091DA01F091DB0191
:1015A000DC0114964D915D916D917C911797468F5A
:1015B000578F60A371A38D919D910D90BC91A02D2B
:1015C000828F938FA48FB58F168A178A108E118EF3
:1015D00081E0818380E0DF91CF9108954F925F9207
:1015E0006F927F928F929F92AF92BF92CF92DF9233
:1015F000EF92FF920F931F93CF93DF934C016B01F8
:101600005A01C091DA01D091DB01FA0111821082F6
:10161000209709F49CC0898180FF9BC08A8D9B8D97
:10162000AC8DBD8D4E895F89688D798D841B950B3E
:10163000A60BB70BA60160E070E084179507A6071C
:10164000B70708F46C013401412C32E0532EC11469
:10165000D10409F47AC08E899F89A88DB98DAC0117
:10166000BD01517066277727452B462B472BC1F5C7
:10167000FA80FA94AC01BD0129E0769567955795FB
:1016800047952A95D1F7F422B9F4892B8A2B8B2B15
:1016900029F46E8D7F8D88A199A105C06AA17BA1D7
:1016A0008CA19DA13DDC623071058105910590F111
:1016B0006AA37BA38CA39DA36AA17BA18CA19DA1FE
:1016C00098DB611571058105910521F1DC01CB01E4
:1016D0008F0D911DA11DB11D8EA39FA3A8A7B9A712
:1016E0002E893F893170C201821B930B76018C15C4
:1016F0009D0508F47C014EA15FA168A579A5811420
:10170000910411F0C30102C080E090E08701B1D3E1
:10171000882319F0198281E01DC08E899F89A88DC8
:10172000B98D8E0D9F1DA11DB11D8E8B9F8BA88F16
:10173000B98F6E0C7F1CCE18DF08F5018081918176
:10174000E80EF91EF182E08282CF80E003C085E0DE
:1017500001C084E0DF91CF911F910F91FF90EF9036
:10176000DF90CF90BF90AF909F908F907F906F90C1
:101770005F904F9008954F925F926F927F928F92F9
:101780009F92AF92BF92CF92DF92EF92FF920F9310
:101790001F93CF93DF9300D000D0CDB7DEB7362FA5
:1017A000272F0091DA011091DB010115110509F4D1
:1017B000E1C0D80111964C91119740FFDDC05A96B7
:1017C0004D915D916D917C915D97C32ED22E7C01E0
:1017D0004C155D056E057F0510F46A017B01F8016B
:1017E00046885788608C718C168A178A108E118EE5
:1017F000C114D104E104F10409F4C0C08280912C29
:10180000A12CB12C39E0880C991CAA1CBB1C3A9560
:10181000D1F74114510461047104E9F1B1E04B1AAC
:10182000510861087108C701B60161507109810949
:101830009109A501940179D329833A834B835C8371
:10184000C301B201A501940170D389819A81AB8152
:10185000BC8182179307A407B507E8F0882799276A
:10186000DC0188199909AA09BB09482259226A2270
:101870007B22D80156964D925D926D927C9259973B
:10188000C418D508E608F70892966D917D918D9160
:101890009C9195972FC0F801668D778D80A191A1BD
:1018A00062A373A384A395A325C03ADB62307105BC
:1018B0008105910528F1F801468057806084718484
:1018C0006415750586059705D8F4F80162A373A31E
:1018D00084A395A346885788608C718C480C591C4A
:1018E0006A1C7B1C468A578A608E718EC818D9087C
:1018F000EA08FB088C149D04AE04BF04B0F204C0D7
:10190000D80111961C9215C0F80186889788A08C82
:10191000B18CC80CD91CEA1CFB1CC68AD78AE08E85
:10192000F18E67DA611571058105910521F4F801E1
:10193000118281E024C029E0F694E794D794C794FB
:101940002A95D1F7D80112962C9130E02150310917
:101950004901330FAA08BB08C820D920EA20FB2080
:10196000C60ED71EE81EF91EF801C6A2D7A2E0A631
:10197000F1A604C085E003C084E001C080E00F90C0
:101980000F900F900F90DF91CF911F910F91FF90CB
:10199000EF90DF90CF90BF90AF909F908F907F900F
:1019A0006F905F904F9008950F931F93CF93DF93A5
:1019B000CDB7DEB7AC970FB6F894DEBF0FBECDBF84
:1019C0002091DA013091DB01232BE9F0AB018C018E
:1019D000CE018196F80193838283BE016F5F7F4FB2
:1019E000C801D2DB811115C08981882381F08C85E3
:1019F00084FF0BC0CE01019626DAF801648375835B
:101A00008683978304C085E004C083E002C0C801D8
:101A10003FDAAC960FB6F894DEBF0FBECDBFDF91B4
:101A2000CF911F910F910895CF92DF92EF92FF9285
:101A30000F931F93CF93DF93CDB7DEB7AC970FB65D
:101A4000F894DEBF0FBECDBF2091DA013091DB01EB
:101A5000232B09F49CC06B017C01CE018196D70138
:101A600013969C938E93129793E0D7011C964D91F9
:101A70005D916D917C911F9741155105610571052F
:101A800011F1F701208131812F70332785E0220F7A
:101A9000331F8A95E1F700E210E0CE010196E9D10B
:101AA000811177C08981882309F475C09C85853EA2
:101AB00021F08E3211F093FF11C0C701AFDA982FD9
:101AC000882399F269C0892F992341F0F701148680
:101AD000158616861786933009F060C0F601399690
:101AE000D7011C964D915D916D917C911F97452B6F
:101AF000462B472B09F444C0BE016F5F7F4F860120
:101B00000F5E1F4FCB01DB012D91BD01203269F02B
:101B1000253009F425EE3196AF0141505109DA0123
:101B20002C93E017F10779F701C08F012985203246
:101B3000A9F03EE2F8013083A8014E5F5F4F218398
:101B40002A85203231F04F5F5F4F22832B85203270
:101B500011F48A0103C023830C5F1F4F2C85F6010B
:101B600020874D8D5E8D6F8D78A140835183628378
:101B7000738369D9F6016483758386839783F8013B
:101B80001082C7014BDA833071F480E00CC085E02D
:101B90000AC091E001C093E0892F98CF911103C052
:101BA000F6013996EDCFAC960FB6F894DEBF0FBEB6
:101BB000CDBFDF91CF911F910F91FF90EF90DF90FC
:101BC000CF90089587FF02C0C29A01C0C298C19AFF
:101BD000C19886FF02C0C29A01C0C298C19AC1983A
:101BE00085FF02C0C29A01C0C298C19AC19884FF01
:101BF00002C0C29A01C0C298C19AC19883FF02C0B4
:101C0000C29A01C0C298C19AC19882FF02C0C29A0A
:101C100001C0C298C19AC19881FF02C0C29A01C096
:101C2000C298C19AC19880FF02C0C29A01C0C298EE
:101C3000C19AC1980895C29A86B3C19AC19883FB8C
:101C4000882780F9880FB3998F5FC19AC198880F50
:101C5000B3998F5FC19AC198880FB3998F5FC19A6A
:101C6000C198880FB3998F5FC19AC198880FB399B3
:101C70008F5FC19AC198880FB3998F5FC19AC1983D
:101C8000880FB3998F5FC19AC1980895C29AC19A7B
:101C9000C198C19AC198C19AC198C19AC198C19A74
:101CA000C198C19AC198C19AC198C19AC198019727
:101CB00071F70895FF920F931F93CF93DF93C82F6F
:101CC000D42F152F062FF72E87FF08C040E050E0D5
:101CD000BA0187E7EFDF8230F8F4CF77C09AABDF45
:101CE000C098A9DF8C2F6EDF8F2D6CDF802F6ADF0D
:101CF000812F68DF8D2F66DFC03421F0C83421F4D6
:101D000087E803C085E901C081E05CDFCAE093DFBA
:101D100087FF02C0C150D9F7DF91CF911F910F917A
:101D2000FF900895DF92EF92FF920F931F93CF934E
:101D3000DF9300D000D0CDB7DEB787B3807F876058
:101D400087BB88B3827C896388BBC09A8AE090E0B5
:101D50009DDF40E050E0BA0180E4ACDF813009F063
:101D60007AC04AEA51E060E070E088E4A3DF8130A5
:101D700061F58E010F5F1F4F780124E0D22ED00E47
:101D80005ADFF70181937F01DE12FACF8B81813018
:101D900009F061C08C818A3A09F05DC098EEE92EA5
:101DA00093E0F92E40E050E060E070E489EE82DFDD
:101DB000882369F18FEC97E00197F1F700C00000EC
:101DC00091E0E91AF10871F746C040E050E0BA012D
:101DD00089EE70DF823018F011E001E402C012E0F9
:101DE00009EE88EEE82E83E0F82E40E050E0BA01DC
:101DF000802F60DF882339F18FEC97E00197F1F7AE
:101E000000C0000091E0E91AF10879F724C040E031
:101E100050E0BA018AE74EDF81111DC00CDFF801E6
:101E200081938F01DE12FACF898186FD02C014E012
:101E300001C01CE01093DC01C09AFDDE81E011239B
:101E400061F080E00AC040E052E060E070E080E5D0
:101E500031DF882379F310E0EDCF0F900F900F90D2
:101E60000F90DF91CF911F910F91FF90EF90DF9036
:101E70000895CF92DF92EF92FF920F931F93CF932B
:101E8000DF937C0169018091DC0183FD07C089E05B
:101E9000440F551F661F771F8A95D1F781E50ADF2A
:101EA000882311F0C1E02EC0C8EED3E087EC90E0AB
:101EB0000197F1F700C00000BEDE8F3F19F42197B3
:101EC000A9F7F0CF8E3F71F7C2E0D2E0C01BD10B73
:101ED000CC19DD09C114D10411F0C601D7DEE1141B
:101EE000F10459F0A8DEF70181937F010150110937
:101EF000C9F7CE01CBDEC0E005C09DDE015011095F
:101F0000E1F7F7CFC09A97DE8C2FDF91CF911F9129
:101F10000F91FF90EF90DF90CF900895C4D4C8D474
:101F2000811101C089D68BD6FFCFA1E21A2EAA1B40
:101F3000BB1BFD010DC0AA1FBB1FEE1FFF1FA21779
:101F4000B307E407F50720F0A21BB30BE40BF50B76
:101F5000661F771F881F991F1A9469F760957095FF
:101F6000809590959B01AC01BD01CF01089509D0EA
:101F7000A59F900DB49F900DA49F800D911D1124DD
:101F80000895A29FB001B39FC001A39F01D0B29F4B
:0E1F9000700D811D1124911D0895F894FFCF4E
:021F9E00000041
:00000001FF
